{
  "_format": "hh-sol-artifact-1",
  "contractName": "TFTEmployee",
  "sourceName": "contracts/TFTEmp.sol",
  "abi": [
    {
      "inputs": [],
      "stateMutability": "nonpayable",
      "type": "constructor"
    },
    {
      "anonymous": false,
      "inputs": [
        {
          "indexed": true,
          "internalType": "address",
          "name": "owner",
          "type": "address"
        },
        {
          "indexed": true,
          "internalType": "address",
          "name": "approved",
          "type": "address"
        },
        {
          "indexed": true,
          "internalType": "uint256",
          "name": "tokenId",
          "type": "uint256"
        }
      ],
      "name": "Approval",
      "type": "event"
    },
    {
      "anonymous": false,
      "inputs": [
        {
          "indexed": true,
          "internalType": "address",
          "name": "owner",
          "type": "address"
        },
        {
          "indexed": true,
          "internalType": "address",
          "name": "operator",
          "type": "address"
        },
        {
          "indexed": false,
          "internalType": "bool",
          "name": "approved",
          "type": "bool"
        }
      ],
      "name": "ApprovalForAll",
      "type": "event"
    },
    {
      "anonymous": false,
      "inputs": [
        {
          "indexed": true,
          "internalType": "address",
          "name": "previousOwner",
          "type": "address"
        },
        {
          "indexed": true,
          "internalType": "address",
          "name": "newOwner",
          "type": "address"
        }
      ],
      "name": "OwnershipTransferred",
      "type": "event"
    },
    {
      "anonymous": false,
      "inputs": [
        {
          "indexed": true,
          "internalType": "address",
          "name": "from",
          "type": "address"
        },
        {
          "indexed": true,
          "internalType": "address",
          "name": "to",
          "type": "address"
        },
        {
          "indexed": true,
          "internalType": "uint256",
          "name": "tokenId",
          "type": "uint256"
        }
      ],
      "name": "Transfer",
      "type": "event"
    },
    {
      "anonymous": false,
      "inputs": [
        {
          "indexed": false,
          "internalType": "bytes32",
          "name": "hash",
          "type": "bytes32"
        },
        {
          "indexed": false,
          "internalType": "uint256",
          "name": "tokenId",
          "type": "uint256"
        },
        {
          "indexed": false,
          "internalType": "string",
          "name": "name",
          "type": "string"
        },
        {
          "indexed": false,
          "internalType": "string",
          "name": "email",
          "type": "string"
        },
        {
          "indexed": false,
          "internalType": "uint16",
          "name": "empcode",
          "type": "uint16"
        },
        {
          "indexed": false,
          "internalType": "uint16",
          "name": "experience",
          "type": "uint16"
        }
      ],
      "name": "emp_details",
      "type": "event"
    },
    {
      "anonymous": false,
      "inputs": [
        {
          "indexed": false,
          "internalType": "bytes32",
          "name": "hash",
          "type": "bytes32"
        },
        {
          "indexed": false,
          "internalType": "uint256",
          "name": "tokenId",
          "type": "uint256"
        },
        {
          "indexed": false,
          "internalType": "string",
          "name": "project_name",
          "type": "string"
        },
        {
          "indexed": false,
          "internalType": "uint16",
          "name": "project_start",
          "type": "uint16"
        },
        {
          "indexed": false,
          "internalType": "uint16",
          "name": "project_end",
          "type": "uint16"
        },
        {
          "indexed": false,
          "internalType": "uint16",
          "name": "teamsize",
          "type": "uint16"
        },
        {
          "indexed": false,
          "internalType": "string",
          "name": "designation",
          "type": "string"
        }
      ],
      "name": "project_details",
      "type": "event"
    },
    {
      "anonymous": false,
      "inputs": [
        {
          "indexed": false,
          "internalType": "uint256",
          "name": "tokenID",
          "type": "uint256"
        },
        {
          "indexed": false,
          "internalType": "bytes32",
          "name": "empDetails_hash",
          "type": "bytes32"
        },
        {
          "indexed": false,
          "internalType": "bytes32",
          "name": "projectDetails_hash",
          "type": "bytes32"
        },
        {
          "indexed": false,
          "internalType": "bytes32",
          "name": "Employee_hash",
          "type": "bytes32"
        }
      ],
      "name": "project_hash",
      "type": "event"
    },
    {
      "inputs": [
        {
          "internalType": "uint256",
          "name": "",
          "type": "uint256"
        }
      ],
      "name": "EmpData",
      "outputs": [
        {
          "internalType": "bytes32",
          "name": "emp_hash",
          "type": "bytes32"
        },
        {
          "internalType": "bytes32",
          "name": "project_hash",
          "type": "bytes32"
        },
        {
          "internalType": "bytes32",
          "name": "employeeHash",
          "type": "bytes32"
        }
      ],
      "stateMutability": "view",
      "type": "function"
    },
    {
      "inputs": [
        {
          "internalType": "string",
          "name": "_name",
          "type": "string"
        },
        {
          "internalType": "string",
          "name": "_emailID",
          "type": "string"
        },
        {
          "internalType": "uint16",
          "name": "_empCode",
          "type": "uint16"
        },
        {
          "internalType": "uint16",
          "name": "_experience",
          "type": "uint16"
        },
        {
          "internalType": "string",
          "name": "_project_name",
          "type": "string"
        },
        {
          "internalType": "uint16",
          "name": "_project_start",
          "type": "uint16"
        },
        {
          "internalType": "uint16",
          "name": "_project_end",
          "type": "uint16"
        },
        {
          "internalType": "uint16",
          "name": "_teamsize",
          "type": "uint16"
        },
        {
          "internalType": "string",
          "name": "_designaion",
          "type": "string"
        }
      ],
      "name": "addEmployee",
      "outputs": [],
      "stateMutability": "nonpayable",
      "type": "function"
    },
    {
      "inputs": [
        {
          "internalType": "address",
          "name": "to",
          "type": "address"
        },
        {
          "internalType": "uint256",
          "name": "tokenId",
          "type": "uint256"
        }
      ],
      "name": "approve",
      "outputs": [],
      "stateMutability": "nonpayable",
      "type": "function"
    },
    {
      "inputs": [
        {
          "internalType": "address",
          "name": "owner",
          "type": "address"
        }
      ],
      "name": "balanceOf",
      "outputs": [
        {
          "internalType": "uint256",
          "name": "",
          "type": "uint256"
        }
      ],
      "stateMutability": "view",
      "type": "function"
    },
    {
      "inputs": [
        {
          "internalType": "uint256",
          "name": "tokenId",
          "type": "uint256"
        }
      ],
      "name": "burn",
      "outputs": [],
      "stateMutability": "nonpayable",
      "type": "function"
    },
    {
      "inputs": [
        {
          "internalType": "uint256",
          "name": "_tokenID",
          "type": "uint256"
        },
        {
          "internalType": "string",
          "name": "_project_name",
          "type": "string"
        },
        {
          "internalType": "uint16",
          "name": "_project_start",
          "type": "uint16"
        },
        {
          "internalType": "uint16",
          "name": "_project_end",
          "type": "uint16"
        },
        {
          "internalType": "uint16",
          "name": "_teamsize",
          "type": "uint16"
        },
        {
          "internalType": "string",
          "name": "_designaion",
          "type": "string"
        }
      ],
      "name": "editEmployee",
      "outputs": [],
      "stateMutability": "nonpayable",
      "type": "function"
    },
    {
      "inputs": [
        {
          "internalType": "uint256",
          "name": "tokenId",
          "type": "uint256"
        }
      ],
      "name": "getApproved",
      "outputs": [
        {
          "internalType": "address",
          "name": "",
          "type": "address"
        }
      ],
      "stateMutability": "view",
      "type": "function"
    },
    {
      "inputs": [
        {
          "internalType": "address",
          "name": "owner",
          "type": "address"
        },
        {
          "internalType": "address",
          "name": "operator",
          "type": "address"
        }
      ],
      "name": "isApprovedForAll",
      "outputs": [
        {
          "internalType": "bool",
          "name": "",
          "type": "bool"
        }
      ],
      "stateMutability": "view",
      "type": "function"
    },
    {
      "inputs": [],
      "name": "name",
      "outputs": [
        {
          "internalType": "string",
          "name": "",
          "type": "string"
        }
      ],
      "stateMutability": "view",
      "type": "function"
    },
    {
      "inputs": [],
      "name": "owner",
      "outputs": [
        {
          "internalType": "address",
          "name": "",
          "type": "address"
        }
      ],
      "stateMutability": "view",
      "type": "function"
    },
    {
      "inputs": [
        {
          "internalType": "uint256",
          "name": "tokenId",
          "type": "uint256"
        }
      ],
      "name": "ownerOf",
      "outputs": [
        {
          "internalType": "address",
          "name": "",
          "type": "address"
        }
      ],
      "stateMutability": "view",
      "type": "function"
    },
    {
      "inputs": [],
      "name": "renounceOwnership",
      "outputs": [],
      "stateMutability": "nonpayable",
      "type": "function"
    },
    {
      "inputs": [
        {
          "internalType": "address",
          "name": "from",
          "type": "address"
        },
        {
          "internalType": "address",
          "name": "to",
          "type": "address"
        },
        {
          "internalType": "uint256",
          "name": "tokenId",
          "type": "uint256"
        }
      ],
      "name": "safeTransferFrom",
      "outputs": [],
      "stateMutability": "nonpayable",
      "type": "function"
    },
    {
      "inputs": [
        {
          "internalType": "address",
          "name": "from",
          "type": "address"
        },
        {
          "internalType": "address",
          "name": "to",
          "type": "address"
        },
        {
          "internalType": "uint256",
          "name": "tokenId",
          "type": "uint256"
        },
        {
          "internalType": "bytes",
          "name": "data",
          "type": "bytes"
        }
      ],
      "name": "safeTransferFrom",
      "outputs": [],
      "stateMutability": "nonpayable",
      "type": "function"
    },
    {
      "inputs": [
        {
          "internalType": "address",
          "name": "operator",
          "type": "address"
        },
        {
          "internalType": "bool",
          "name": "approved",
          "type": "bool"
        }
      ],
      "name": "setApprovalForAll",
      "outputs": [],
      "stateMutability": "nonpayable",
      "type": "function"
    },
    {
      "inputs": [
        {
          "internalType": "bytes4",
          "name": "interfaceId",
          "type": "bytes4"
        }
      ],
      "name": "supportsInterface",
      "outputs": [
        {
          "internalType": "bool",
          "name": "",
          "type": "bool"
        }
      ],
      "stateMutability": "view",
      "type": "function"
    },
    {
      "inputs": [],
      "name": "symbol",
      "outputs": [
        {
          "internalType": "string",
          "name": "",
          "type": "string"
        }
      ],
      "stateMutability": "view",
      "type": "function"
    },
    {
      "inputs": [
        {
          "internalType": "uint256",
          "name": "tokenId",
          "type": "uint256"
        }
      ],
      "name": "tokenURI",
      "outputs": [
        {
          "internalType": "string",
          "name": "",
          "type": "string"
        }
      ],
      "stateMutability": "view",
      "type": "function"
    },
    {
      "inputs": [
        {
          "internalType": "address",
          "name": "from",
          "type": "address"
        },
        {
          "internalType": "address",
          "name": "to",
          "type": "address"
        },
        {
          "internalType": "uint256",
          "name": "tokenId",
          "type": "uint256"
        }
      ],
      "name": "transferFrom",
      "outputs": [],
      "stateMutability": "nonpayable",
      "type": "function"
    },
    {
      "inputs": [
        {
          "internalType": "address",
          "name": "newOwner",
          "type": "address"
        }
      ],
      "name": "transferOwnership",
      "outputs": [],
      "stateMutability": "nonpayable",
      "type": "function"
    }
  ],
  "bytecode": "0x60806040523480156200001157600080fd5b506040518060400160405280600b81526020017f544654456d706c6f7965650000000000000000000000000000000000000000008152506040518060400160405280600681526020017f544654454d50000000000000000000000000000000000000000000000000000081525081600090816200008f919062000412565b508060019081620000a1919062000412565b505050620000c4620000b8620000ca60201b60201c565b620000d260201b60201c565b620004f9565b600033905090565b6000600760009054906101000a900473ffffffffffffffffffffffffffffffffffffffff16905081600760006101000a81548173ffffffffffffffffffffffffffffffffffffffff021916908373ffffffffffffffffffffffffffffffffffffffff1602179055508173ffffffffffffffffffffffffffffffffffffffff168173ffffffffffffffffffffffffffffffffffffffff167f8be0079c531659141344cd1fd0a4f28419497f9722a3daafe3b4186f6b6457e060405160405180910390a35050565b600081519050919050565b7f4e487b7100000000000000000000000000000000000000000000000000000000600052604160045260246000fd5b7f4e487b7100000000000000000000000000000000000000000000000000000000600052602260045260246000fd5b600060028204905060018216806200021a57607f821691505b60208210810362000230576200022f620001d2565b5b50919050565b60008190508160005260206000209050919050565b60006020601f8301049050919050565b600082821b905092915050565b6000600883026200029a7fffffffffffffffffffffffffffffffffffffffffffffffffffffffffffffffff826200025b565b620002a686836200025b565b95508019841693508086168417925050509392505050565b6000819050919050565b6000819050919050565b6000620002f3620002ed620002e784620002be565b620002c8565b620002be565b9050919050565b6000819050919050565b6200030f83620002d2565b620003276200031e82620002fa565b84845462000268565b825550505050565b600090565b6200033e6200032f565b6200034b81848462000304565b505050565b5b8181101562000373576200036760008262000334565b60018101905062000351565b5050565b601f821115620003c2576200038c8162000236565b62000397846200024b565b81016020851015620003a7578190505b620003bf620003b6856200024b565b83018262000350565b50505b505050565b600082821c905092915050565b6000620003e760001984600802620003c7565b1980831691505092915050565b6000620004028383620003d4565b9150826002028217905092915050565b6200041d8262000198565b67ffffffffffffffff811115620004395762000438620001a3565b5b62000445825462000201565b6200045282828562000377565b600060209050601f8311600181146200048a576000841562000475578287015190505b620004818582620003f4565b865550620004f1565b601f1984166200049a8662000236565b60005b82811015620004c4578489015182556001820191506020850194506020810190506200049d565b86831015620004e45784890151620004e0601f891682620003d4565b8355505b6001600288020188555050505b505050505050565b613d2b80620005096000396000f3fe608060405234801561001057600080fd5b506004361061012c5760003560e01c8063715018a6116100ad578063a22cb46511610071578063a22cb4651461032f578063b88d4fde1461034b578063c87b56dd14610367578063e985e9c514610397578063f2fde38b146103c75761012c565b8063715018a61461029b5780638da5cb5b146102a557806391ffa999146102c357806393567799146102df57806395d89b41146103115761012c565b806323b872dd116100f457806323b872dd146101e757806342842e0e1461020357806342966c681461021f5780636352211e1461023b57806370a082311461026b5761012c565b806301ffc9a71461013157806306fdde0314610161578063081812fc1461017f578063095ea7b3146101af57806313e09f7c146101cb575b600080fd5b61014b60048036038101906101469190612474565b6103e3565b60405161015891906124bc565b60405180910390f35b6101696104c5565b6040516101769190612567565b60405180910390f35b610199600480360381019061019491906125bf565b610557565b6040516101a6919061262d565b60405180910390f35b6101c960048036038101906101c49190612674565b61059d565b005b6101e560048036038101906101e09190612823565b6106b4565b005b61020160048036038101906101fc91906128e8565b610854565b005b61021d600480360381019061021891906128e8565b6108b4565b005b610239600480360381019061023491906125bf565b6108d4565b005b610255600480360381019061025091906125bf565b6108e8565b604051610262919061262d565b60405180910390f35b6102856004803603810190610280919061293b565b61096e565b6040516102929190612977565b60405180910390f35b6102a3610a25565b005b6102ad610a39565b6040516102ba919061262d565b60405180910390f35b6102dd60048036038101906102d89190612992565b610a63565b005b6102f960048036038101906102f491906125bf565b610cea565b60405161030893929190612ae5565b60405180910390f35b610319610d14565b6040516103269190612567565b60405180910390f35b61034960048036038101906103449190612b48565b610da6565b005b61036560048036038101906103609190612c29565b610dbc565b005b610381600480360381019061037c91906125bf565b610e1e565b60405161038e9190612567565b60405180910390f35b6103b160048036038101906103ac9190612cac565b610e30565b6040516103be91906124bc565b60405180910390f35b6103e160048036038101906103dc919061293b565b610ec4565b005b60007f80ac58cd000000000000000000000000000000000000000000000000000000007bffffffffffffffffffffffffffffffffffffffffffffffffffffffff1916827bffffffffffffffffffffffffffffffffffffffffffffffffffffffff191614806104ae57507f5b5e139f000000000000000000000000000000000000000000000000000000007bffffffffffffffffffffffffffffffffffffffffffffffffffffffff1916827bffffffffffffffffffffffffffffffffffffffffffffffffffffffff1916145b806104be57506104bd82610f47565b5b9050919050565b6060600080546104d490612d1b565b80601f016020809104026020016040519081016040528092919081815260200182805461050090612d1b565b801561054d5780601f106105225761010080835404028352916020019161054d565b820191906000526020600020905b81548152906001019060200180831161053057829003601f168201915b5050505050905090565b600061056282610fb1565b6004600083815260200190815260200160002060009054906101000a900473ffffffffffffffffffffffffffffffffffffffff169050919050565b60006105a8826108e8565b90508073ffffffffffffffffffffffffffffffffffffffff168373ffffffffffffffffffffffffffffffffffffffff1603610618576040517f08c379a000000000000000000000000000000000000000000000000000000000815260040161060f90612dbe565b60405180910390fd5b8073ffffffffffffffffffffffffffffffffffffffff16610637610ffc565b73ffffffffffffffffffffffffffffffffffffffff161480610666575061066581610660610ffc565b610e30565b5b6106a5576040517f08c379a000000000000000000000000000000000000000000000000000000000815260040161069c90612e50565b60405180910390fd5b6106af8383611004565b505050565b6106bc6110bd565b6106c58661113b565b610704576040517f08c379a00000000000000000000000000000000000000000000000000000000081526004016106fb90612ee2565b60405180910390fd5b8261ffff168461ffff161061074e576040517f08c379a000000000000000000000000000000000000000000000000000000000815260040161074590612f74565b60405180910390fd5b600061075e87878787878761117c565b905061078987826040516020016107759190612fb5565b60405160208183030381529060405261122e565b7f9dac75992d9edde62a3d68f4b01b5f71b868f9dbaaff501eb575d2ca441c470a60096000898152602001908152602001600020600101548888888888886040516107da9796959493929190612fdf565b60405180910390a17fcd25ec441827727e5c5ee8e0a15c6ee76b9c263735863b76834a54ad48b4502787600960008a815260200190815260200160002060000154600960008b81526020019081526020016000206001015484604051610843949392919061305c565b60405180910390a150505050505050565b61086561085f610ffc565b82611244565b6108a4576040517f08c379a000000000000000000000000000000000000000000000000000000000815260040161089b90613113565b60405180910390fd5b6108af8383836112d9565b505050565b6108cf83838360405180602001604052806000815250610dbc565b505050565b6108dc6110bd565b6108e5816115d2565b50565b6000806108f483611625565b9050600073ffffffffffffffffffffffffffffffffffffffff168173ffffffffffffffffffffffffffffffffffffffff1603610965576040517f08c379a000000000000000000000000000000000000000000000000000000000815260040161095c9061317f565b60405180910390fd5b80915050919050565b60008073ffffffffffffffffffffffffffffffffffffffff168273ffffffffffffffffffffffffffffffffffffffff16036109de576040517f08c379a00000000000000000000000000000000000000000000000000000000081526004016109d590613211565b60405180910390fd5b600360008373ffffffffffffffffffffffffffffffffffffffff1673ffffffffffffffffffffffffffffffffffffffff168152602001908152602001600020549050919050565b610a2d6110bd565b610a376000611662565b565b6000600760009054906101000a900473ffffffffffffffffffffffffffffffffffffffff16905090565b610a6b6110bd565b6000610a776008611728565b905060001515610a868261113b565b151514610ac8576040517f08c379a0000000000000000000000000000000000000000000000000000000008152600401610abf906132a3565b60405180910390fd5b8361ffff168561ffff1610610b12576040517f08c379a0000000000000000000000000000000000000000000000000000000008152600401610b0990612f74565b60405180910390fd5b60008686868686604051602001610b2d9594939291906132c3565b60405160208183030381529060405280519060200120905060008b8b8b8b604051602001610b5e9493929190613324565b60405160208183030381529060405280519060200120905060008183604051602001610b8b929190613377565b60405160208183030381529060405280519060200120905060405180606001604052808381526020018481526020018281525060096000868152602001908152602001600020600082015181600001556020820151816001015560408201518160020155905050610c1a81604051602001610c069190612fb5565b604051602081830303815290604052611736565b7fa74ba2b56bb5c459af126346220e83df318136bd0ce0eb2bd8f31ece36de333a82858f8f8f8f604051610c53969594939291906133a0565b60405180910390a17f9dac75992d9edde62a3d68f4b01b5f71b868f9dbaaff501eb575d2ca441c470a83858b8b8b8b8b604051610c969796959493929190612fdf565b60405180910390a17fcd25ec441827727e5c5ee8e0a15c6ee76b9c263735863b76834a54ad48b4502784838584604051610cd3949392919061305c565b60405180910390a150505050505050505050505050565b60096020528060005260406000206000915090508060000154908060010154908060020154905083565b606060018054610d2390612d1b565b80601f0160208091040260200160405190810160405280929190818152602001828054610d4f90612d1b565b8015610d9c5780601f10610d7157610100808354040283529160200191610d9c565b820191906000526020600020905b815481529060010190602001808311610d7f57829003601f168201915b5050505050905090565b610db8610db1610ffc565b838361176e565b5050565b610dcd610dc7610ffc565b83611244565b610e0c576040517f08c379a0000000000000000000000000000000000000000000000000000000008152600401610e0390613113565b60405180910390fd5b610e18848484846118da565b50505050565b6060610e2982611936565b9050919050565b6000600560008473ffffffffffffffffffffffffffffffffffffffff1673ffffffffffffffffffffffffffffffffffffffff16815260200190815260200160002060008373ffffffffffffffffffffffffffffffffffffffff1673ffffffffffffffffffffffffffffffffffffffff16815260200190815260200160002060009054906101000a900460ff16905092915050565b610ecc6110bd565b600073ffffffffffffffffffffffffffffffffffffffff168173ffffffffffffffffffffffffffffffffffffffff1603610f3b576040517f08c379a0000000000000000000000000000000000000000000000000000000008152600401610f3290613481565b60405180910390fd5b610f4481611662565b50565b60007f01ffc9a7000000000000000000000000000000000000000000000000000000007bffffffffffffffffffffffffffffffffffffffffffffffffffffffff1916827bffffffffffffffffffffffffffffffffffffffffffffffffffffffff1916149050919050565b610fba8161113b565b610ff9576040517f08c379a0000000000000000000000000000000000000000000000000000000008152600401610ff09061317f565b60405180910390fd5b50565b600033905090565b816004600083815260200190815260200160002060006101000a81548173ffffffffffffffffffffffffffffffffffffffff021916908373ffffffffffffffffffffffffffffffffffffffff160217905550808273ffffffffffffffffffffffffffffffffffffffff16611077836108e8565b73ffffffffffffffffffffffffffffffffffffffff167f8c5be1e5ebec7d5bd14f71427d1e84f3dd0314c0f7b2291e5b200ac8c7c3b92560405160405180910390a45050565b6110c5610ffc565b73ffffffffffffffffffffffffffffffffffffffff166110e3610a39565b73ffffffffffffffffffffffffffffffffffffffff1614611139576040517f08c379a0000000000000000000000000000000000000000000000000000000008152600401611130906134ed565b60405180910390fd5b565b60008073ffffffffffffffffffffffffffffffffffffffff1661115d83611625565b73ffffffffffffffffffffffffffffffffffffffff1614159050919050565b60006111866110bd565b600086868686866040516020016111a19594939291906132c3565b6040516020818303038152906040528051906020012090506000600960008a61ffff16815260200190815260200160002060000154826040516020016111e8929190613377565b60405160208183030381529060405280519060200120905081600960008b61ffff1681526020019081526020016000206001018190555080925050509695505050505050565b6112366110bd565b6112408282611a48565b5050565b600080611250836108e8565b90508073ffffffffffffffffffffffffffffffffffffffff168473ffffffffffffffffffffffffffffffffffffffff16148061129257506112918185610e30565b5b806112d057508373ffffffffffffffffffffffffffffffffffffffff166112b884610557565b73ffffffffffffffffffffffffffffffffffffffff16145b91505092915050565b8273ffffffffffffffffffffffffffffffffffffffff166112f9826108e8565b73ffffffffffffffffffffffffffffffffffffffff161461134f576040517f08c379a00000000000000000000000000000000000000000000000000000000081526004016113469061357f565b60405180910390fd5b600073ffffffffffffffffffffffffffffffffffffffff168273ffffffffffffffffffffffffffffffffffffffff16036113be576040517f08c379a00000000000000000000000000000000000000000000000000000000081526004016113b590613611565b60405180910390fd5b6113cb8383836001611ab5565b8273ffffffffffffffffffffffffffffffffffffffff166113eb826108e8565b73ffffffffffffffffffffffffffffffffffffffff1614611441576040517f08c379a00000000000000000000000000000000000000000000000000000000081526004016114389061357f565b60405180910390fd5b6004600082815260200190815260200160002060006101000a81549073ffffffffffffffffffffffffffffffffffffffff02191690556001600360008573ffffffffffffffffffffffffffffffffffffffff1673ffffffffffffffffffffffffffffffffffffffff168152602001908152602001600020600082825403925050819055506001600360008473ffffffffffffffffffffffffffffffffffffffff1673ffffffffffffffffffffffffffffffffffffffff16815260200190815260200160002060008282540192505081905550816002600083815260200190815260200160002060006101000a81548173ffffffffffffffffffffffffffffffffffffffff021916908373ffffffffffffffffffffffffffffffffffffffff160217905550808273ffffffffffffffffffffffffffffffffffffffff168473ffffffffffffffffffffffffffffffffffffffff167fddf252ad1be2c89b69c2b068fc378daa952ba7f163c4a11628f55a4df523b3ef60405160405180910390a46115cd8383836001611b61565b505050565b6115db81611b67565b60006006600083815260200190815260200160002080546115fb90612d1b565b9050146116225760066000828152602001908152602001600020600061162191906123ab565b5b50565b60006002600083815260200190815260200160002060009054906101000a900473ffffffffffffffffffffffffffffffffffffffff169050919050565b6000600760009054906101000a900473ffffffffffffffffffffffffffffffffffffffff16905081600760006101000a81548173ffffffffffffffffffffffffffffffffffffffff021916908373ffffffffffffffffffffffffffffffffffffffff1602179055508173ffffffffffffffffffffffffffffffffffffffff168173ffffffffffffffffffffffffffffffffffffffff167f8be0079c531659141344cd1fd0a4f28419497f9722a3daafe3b4186f6b6457e060405160405180910390a35050565b600081600001549050919050565b61173e6110bd565b600061174a6008611728565b90506117566008611cb5565b6117603382611ccb565b61176a8183611a48565b5050565b8173ffffffffffffffffffffffffffffffffffffffff168373ffffffffffffffffffffffffffffffffffffffff16036117dc576040517f08c379a00000000000000000000000000000000000000000000000000000000081526004016117d39061367d565b60405180910390fd5b80600560008573ffffffffffffffffffffffffffffffffffffffff1673ffffffffffffffffffffffffffffffffffffffff16815260200190815260200160002060008473ffffffffffffffffffffffffffffffffffffffff1673ffffffffffffffffffffffffffffffffffffffff16815260200190815260200160002060006101000a81548160ff0219169083151502179055508173ffffffffffffffffffffffffffffffffffffffff168373ffffffffffffffffffffffffffffffffffffffff167f17307eab39ab6107e8899845ad3d59bd9653f200f220920489ca2b5937696c31836040516118cd91906124bc565b60405180910390a3505050565b6118e58484846112d9565b6118f184848484611ce9565b611930576040517f08c379a00000000000000000000000000000000000000000000000000000000081526004016119279061370f565b60405180910390fd5b50505050565b606061194182610fb1565b600060066000848152602001908152602001600020805461196190612d1b565b80601f016020809104026020016040519081016040528092919081815260200182805461198d90612d1b565b80156119da5780601f106119af576101008083540402835291602001916119da565b820191906000526020600020905b8154815290600101906020018083116119bd57829003601f168201915b5050505050905060006119eb611e70565b90506000815103611a00578192505050611a43565b600082511115611a35578082604051602001611a1d92919061376b565b60405160208183030381529060405292505050611a43565b611a3e84611e87565b925050505b919050565b611a518261113b565b611a90576040517f08c379a0000000000000000000000000000000000000000000000000000000008152600401611a8790613801565b60405180910390fd5b80600660008481526020019081526020016000209081611ab091906139cd565b505050565b600073ffffffffffffffffffffffffffffffffffffffff168473ffffffffffffffffffffffffffffffffffffffff161480611b1c5750600073ffffffffffffffffffffffffffffffffffffffff168373ffffffffffffffffffffffffffffffffffffffff16145b611b5b576040517f08c379a0000000000000000000000000000000000000000000000000000000008152600401611b5290613aeb565b60405180910390fd5b50505050565b50505050565b6000611b72826108e8565b9050611b82816000846001611ab5565b611b8b826108e8565b90506004600083815260200190815260200160002060006101000a81549073ffffffffffffffffffffffffffffffffffffffff02191690556001600360008373ffffffffffffffffffffffffffffffffffffffff1673ffffffffffffffffffffffffffffffffffffffff168152602001908152602001600020600082825403925050819055506002600083815260200190815260200160002060006101000a81549073ffffffffffffffffffffffffffffffffffffffff021916905581600073ffffffffffffffffffffffffffffffffffffffff168273ffffffffffffffffffffffffffffffffffffffff167fddf252ad1be2c89b69c2b068fc378daa952ba7f163c4a11628f55a4df523b3ef60405160405180910390a4611cb1816000846001611b61565b5050565b6001816000016000828254019250508190555050565b611ce5828260405180602001604052806000815250611eef565b5050565b6000611d0a8473ffffffffffffffffffffffffffffffffffffffff16611f4a565b15611e63578373ffffffffffffffffffffffffffffffffffffffff1663150b7a02611d33610ffc565b8786866040518563ffffffff1660e01b8152600401611d559493929190613b60565b6020604051808303816000875af1925050508015611d9157506040513d601f19601f82011682018060405250810190611d8e9190613bc1565b60015b611e13573d8060008114611dc1576040519150601f19603f3d011682016040523d82523d6000602084013e611dc6565b606091505b506000815103611e0b576040517f08c379a0000000000000000000000000000000000000000000000000000000008152600401611e029061370f565b60405180910390fd5b805181602001fd5b63150b7a0260e01b7bffffffffffffffffffffffffffffffffffffffffffffffffffffffff1916817bffffffffffffffffffffffffffffffffffffffffffffffffffffffff191614915050611e68565b600190505b949350505050565b606060405180602001604052806000815250905090565b6060611e9282610fb1565b6000611e9c611e70565b90506000815111611ebc5760405180602001604052806000815250611ee7565b80611ec684611f6d565b604051602001611ed792919061376b565b6040516020818303038152906040525b915050919050565b611ef9838361203b565b611f066000848484611ce9565b611f45576040517f08c379a0000000000000000000000000000000000000000000000000000000008152600401611f3c9061370f565b60405180910390fd5b505050565b6000808273ffffffffffffffffffffffffffffffffffffffff163b119050919050565b606060006001611f7c84612258565b01905060008167ffffffffffffffff811115611f9b57611f9a6126be565b5b6040519080825280601f01601f191660200182016040528015611fcd5781602001600182028036833780820191505090505b509050600082602001820190505b600115612030578080600190039150507f3031323334353637383961626364656600000000000000000000000000000000600a86061a8153600a858161202457612023613bee565b5b04945060008503611fdb575b819350505050919050565b600073ffffffffffffffffffffffffffffffffffffffff168273ffffffffffffffffffffffffffffffffffffffff16036120aa576040517f08c379a00000000000000000000000000000000000000000000000000000000081526004016120a190613c69565b60405180910390fd5b6120b38161113b565b156120f3576040517f08c379a00000000000000000000000000000000000000000000000000000000081526004016120ea90613cd5565b60405180910390fd5b612101600083836001611ab5565b61210a8161113b565b1561214a576040517f08c379a000000000000000000000000000000000000000000000000000000000815260040161214190613cd5565b60405180910390fd5b6001600360008473ffffffffffffffffffffffffffffffffffffffff1673ffffffffffffffffffffffffffffffffffffffff16815260200190815260200160002060008282540192505081905550816002600083815260200190815260200160002060006101000a81548173ffffffffffffffffffffffffffffffffffffffff021916908373ffffffffffffffffffffffffffffffffffffffff160217905550808273ffffffffffffffffffffffffffffffffffffffff16600073ffffffffffffffffffffffffffffffffffffffff167fddf252ad1be2c89b69c2b068fc378daa952ba7f163c4a11628f55a4df523b3ef60405160405180910390a4612254600083836001611b61565b5050565b600080600090507a184f03e93ff9f4daa797ed6e38ed64bf6a1f01000000000000000083106122b6577a184f03e93ff9f4daa797ed6e38ed64bf6a1f01000000000000000083816122ac576122ab613bee565b5b0492506040810190505b6d04ee2d6d415b85acef810000000083106122f3576d04ee2d6d415b85acef810000000083816122e9576122e8613bee565b5b0492506020810190505b662386f26fc10000831061232257662386f26fc10000838161231857612317613bee565b5b0492506010810190505b6305f5e100831061234b576305f5e100838161234157612340613bee565b5b0492506008810190505b612710831061237057612710838161236657612365613bee565b5b0492506004810190505b60648310612393576064838161238957612388613bee565b5b0492506002810190505b600a83106123a2576001810190505b80915050919050565b5080546123b790612d1b565b6000825580601f106123c957506123e8565b601f0160209004906000526020600020908101906123e791906123eb565b5b50565b5b808211156124045760008160009055506001016123ec565b5090565b6000604051905090565b600080fd5b600080fd5b60007fffffffff0000000000000000000000000000000000000000000000000000000082169050919050565b6124518161241c565b811461245c57600080fd5b50565b60008135905061246e81612448565b92915050565b60006020828403121561248a57612489612412565b5b60006124988482850161245f565b91505092915050565b60008115159050919050565b6124b6816124a1565b82525050565b60006020820190506124d160008301846124ad565b92915050565b600081519050919050565b600082825260208201905092915050565b60005b838110156125115780820151818401526020810190506124f6565b60008484015250505050565b6000601f19601f8301169050919050565b6000612539826124d7565b61254381856124e2565b93506125538185602086016124f3565b61255c8161251d565b840191505092915050565b60006020820190508181036000830152612581818461252e565b905092915050565b6000819050919050565b61259c81612589565b81146125a757600080fd5b50565b6000813590506125b981612593565b92915050565b6000602082840312156125d5576125d4612412565b5b60006125e3848285016125aa565b91505092915050565b600073ffffffffffffffffffffffffffffffffffffffff82169050919050565b6000612617826125ec565b9050919050565b6126278161260c565b82525050565b6000602082019050612642600083018461261e565b92915050565b6126518161260c565b811461265c57600080fd5b50565b60008135905061266e81612648565b92915050565b6000806040838503121561268b5761268a612412565b5b60006126998582860161265f565b92505060206126aa858286016125aa565b9150509250929050565b600080fd5b600080fd5b7f4e487b7100000000000000000000000000000000000000000000000000000000600052604160045260246000fd5b6126f68261251d565b810181811067ffffffffffffffff82111715612715576127146126be565b5b80604052505050565b6000612728612408565b905061273482826126ed565b919050565b600067ffffffffffffffff821115612754576127536126be565b5b61275d8261251d565b9050602081019050919050565b82818337600083830152505050565b600061278c61278784612739565b61271e565b9050828152602081018484840111156127a8576127a76126b9565b5b6127b384828561276a565b509392505050565b600082601f8301126127d0576127cf6126b4565b5b81356127e0848260208601612779565b91505092915050565b600061ffff82169050919050565b612800816127e9565b811461280b57600080fd5b50565b60008135905061281d816127f7565b92915050565b60008060008060008060c087890312156128405761283f612412565b5b600061284e89828a016125aa565b965050602087013567ffffffffffffffff81111561286f5761286e612417565b5b61287b89828a016127bb565b955050604061288c89828a0161280e565b945050606061289d89828a0161280e565b93505060806128ae89828a0161280e565b92505060a087013567ffffffffffffffff8111156128cf576128ce612417565b5b6128db89828a016127bb565b9150509295509295509295565b60008060006060848603121561290157612900612412565b5b600061290f8682870161265f565b93505060206129208682870161265f565b9250506040612931868287016125aa565b9150509250925092565b60006020828403121561295157612950612412565b5b600061295f8482850161265f565b91505092915050565b61297181612589565b82525050565b600060208201905061298c6000830184612968565b92915050565b60008060008060008060008060006101208a8c0312156129b5576129b4612412565b5b60008a013567ffffffffffffffff8111156129d3576129d2612417565b5b6129df8c828d016127bb565b99505060208a013567ffffffffffffffff811115612a00576129ff612417565b5b612a0c8c828d016127bb565b9850506040612a1d8c828d0161280e565b9750506060612a2e8c828d0161280e565b96505060808a013567ffffffffffffffff811115612a4f57612a4e612417565b5b612a5b8c828d016127bb565b95505060a0612a6c8c828d0161280e565b94505060c0612a7d8c828d0161280e565b93505060e0612a8e8c828d0161280e565b9250506101008a013567ffffffffffffffff811115612ab057612aaf612417565b5b612abc8c828d016127bb565b9150509295985092959850929598565b6000819050919050565b612adf81612acc565b82525050565b6000606082019050612afa6000830186612ad6565b612b076020830185612ad6565b612b146040830184612ad6565b949350505050565b612b25816124a1565b8114612b3057600080fd5b50565b600081359050612b4281612b1c565b92915050565b60008060408385031215612b5f57612b5e612412565b5b6000612b6d8582860161265f565b9250506020612b7e85828601612b33565b9150509250929050565b600067ffffffffffffffff821115612ba357612ba26126be565b5b612bac8261251d565b9050602081019050919050565b6000612bcc612bc784612b88565b61271e565b905082815260208101848484011115612be857612be76126b9565b5b612bf384828561276a565b509392505050565b600082601f830112612c1057612c0f6126b4565b5b8135612c20848260208601612bb9565b91505092915050565b60008060008060808587031215612c4357612c42612412565b5b6000612c518782880161265f565b9450506020612c628782880161265f565b9350506040612c73878288016125aa565b925050606085013567ffffffffffffffff811115612c9457612c93612417565b5b612ca087828801612bfb565b91505092959194509250565b60008060408385031215612cc357612cc2612412565b5b6000612cd18582860161265f565b9250506020612ce28582860161265f565b9150509250929050565b7f4e487b7100000000000000000000000000000000000000000000000000000000600052602260045260246000fd5b60006002820490506001821680612d3357607f821691505b602082108103612d4657612d45612cec565b5b50919050565b7f4552433732313a20617070726f76616c20746f2063757272656e74206f776e6560008201527f7200000000000000000000000000000000000000000000000000000000000000602082015250565b6000612da86021836124e2565b9150612db382612d4c565b604082019050919050565b60006020820190508181036000830152612dd781612d9b565b9050919050565b7f4552433732313a20617070726f76652063616c6c6572206973206e6f7420746f60008201527f6b656e206f776e6572206f7220617070726f76656420666f7220616c6c000000602082015250565b6000612e3a603d836124e2565b9150612e4582612dde565b604082019050919050565b60006020820190508181036000830152612e6981612e2d565b9050919050565b7f5468697320746f6b656e20646f65736e27742065786973742c20506c6561736560008201527f206d696e742061206e657720746f6b656e210000000000000000000000000000602082015250565b6000612ecc6032836124e2565b9150612ed782612e70565b604082019050919050565b60006020820190508181036000830152612efb81612ebf565b9050919050565b7f537461727420646174652063616e6e6f7420626520677265617465722074686160008201527f6e20656e64206461746500000000000000000000000000000000000000000000602082015250565b6000612f5e602a836124e2565b9150612f6982612f02565b604082019050919050565b60006020820190508181036000830152612f8d81612f51565b9050919050565b6000819050919050565b612faf612faa82612acc565b612f94565b82525050565b6000612fc18284612f9e565b60208201915081905092915050565b612fd9816127e9565b82525050565b600060e082019050612ff4600083018a612ad6565b6130016020830189612968565b8181036040830152613013818861252e565b90506130226060830187612fd0565b61302f6080830186612fd0565b61303c60a0830185612fd0565b81810360c083015261304e818461252e565b905098975050505050505050565b60006080820190506130716000830187612968565b61307e6020830186612ad6565b61308b6040830185612ad6565b6130986060830184612ad6565b95945050505050565b7f4552433732313a2063616c6c6572206973206e6f7420746f6b656e206f776e6560008201527f72206f7220617070726f76656400000000000000000000000000000000000000602082015250565b60006130fd602d836124e2565b9150613108826130a1565b604082019050919050565b6000602082019050818103600083015261312c816130f0565b9050919050565b7f4552433732313a20696e76616c696420746f6b656e2049440000000000000000600082015250565b60006131696018836124e2565b915061317482613133565b602082019050919050565b600060208201905081810360008301526131988161315c565b9050919050565b7f4552433732313a2061646472657373207a65726f206973206e6f74206120766160008201527f6c6964206f776e65720000000000000000000000000000000000000000000000602082015250565b60006131fb6029836124e2565b91506132068261319f565b604082019050919050565b6000602082019050818103600083015261322a816131ee565b9050919050565b7f5468697320746f6b656e20616c72656164792065786973742077697468204d6560008201527f7461646174610000000000000000000000000000000000000000000000000000602082015250565b600061328d6026836124e2565b915061329882613231565b604082019050919050565b600060208201905081810360008301526132bc81613280565b9050919050565b600060a08201905081810360008301526132dd818861252e565b90506132ec6020830187612fd0565b6132f96040830186612fd0565b6133066060830185612fd0565b8181036080830152613318818461252e565b90509695505050505050565b6000608082019050818103600083015261333e818761252e565b90508181036020830152613352818661252e565b90506133616040830185612fd0565b61336e6060830184612fd0565b95945050505050565b600060408201905061338c6000830185612ad6565b6133996020830184612ad6565b9392505050565b600060c0820190506133b56000830189612ad6565b6133c26020830188612968565b81810360408301526133d4818761252e565b905081810360608301526133e8818661252e565b90506133f76080830185612fd0565b61340460a0830184612fd0565b979650505050505050565b7f4f776e61626c653a206e6577206f776e657220697320746865207a65726f206160008201527f6464726573730000000000000000000000000000000000000000000000000000602082015250565b600061346b6026836124e2565b91506134768261340f565b604082019050919050565b6000602082019050818103600083015261349a8161345e565b9050919050565b7f4f776e61626c653a2063616c6c6572206973206e6f7420746865206f776e6572600082015250565b60006134d76020836124e2565b91506134e2826134a1565b602082019050919050565b60006020820190508181036000830152613506816134ca565b9050919050565b7f4552433732313a207472616e736665722066726f6d20696e636f72726563742060008201527f6f776e6572000000000000000000000000000000000000000000000000000000602082015250565b60006135696025836124e2565b91506135748261350d565b604082019050919050565b600060208201905081810360008301526135988161355c565b9050919050565b7f4552433732313a207472616e7366657220746f20746865207a65726f2061646460008201527f7265737300000000000000000000000000000000000000000000000000000000602082015250565b60006135fb6024836124e2565b91506136068261359f565b604082019050919050565b6000602082019050818103600083015261362a816135ee565b9050919050565b7f4552433732313a20617070726f766520746f2063616c6c657200000000000000600082015250565b60006136676019836124e2565b915061367282613631565b602082019050919050565b600060208201905081810360008301526136968161365a565b9050919050565b7f4552433732313a207472616e7366657220746f206e6f6e20455243373231526560008201527f63656976657220696d706c656d656e7465720000000000000000000000000000602082015250565b60006136f96032836124e2565b91506137048261369d565b604082019050919050565b60006020820190508181036000830152613728816136ec565b9050919050565b600081905092915050565b6000613745826124d7565b61374f818561372f565b935061375f8185602086016124f3565b80840191505092915050565b6000613777828561373a565b9150613783828461373a565b91508190509392505050565b7f45524337323155524953746f726167653a2055524920736574206f66206e6f6e60008201527f6578697374656e7420746f6b656e000000000000000000000000000000000000602082015250565b60006137eb602e836124e2565b91506137f68261378f565b604082019050919050565b6000602082019050818103600083015261381a816137de565b9050919050565b60008190508160005260206000209050919050565b60006020601f8301049050919050565b600082821b905092915050565b6000600883026138837fffffffffffffffffffffffffffffffffffffffffffffffffffffffffffffffff82613846565b61388d8683613846565b95508019841693508086168417925050509392505050565b6000819050919050565b60006138ca6138c56138c084612589565b6138a5565b612589565b9050919050565b6000819050919050565b6138e4836138af565b6138f86138f0826138d1565b848454613853565b825550505050565b600090565b61390d613900565b6139188184846138db565b505050565b5b8181101561393c57613931600082613905565b60018101905061391e565b5050565b601f8211156139815761395281613821565b61395b84613836565b8101602085101561396a578190505b61397e61397685613836565b83018261391d565b50505b505050565b600082821c905092915050565b60006139a460001984600802613986565b1980831691505092915050565b60006139bd8383613993565b9150826002028217905092915050565b6139d6826124d7565b67ffffffffffffffff8111156139ef576139ee6126be565b5b6139f98254612d1b565b613a04828285613940565b600060209050601f831160018114613a375760008415613a25578287015190505b613a2f85826139b1565b865550613a97565b601f198416613a4586613821565b60005b82811015613a6d57848901518255600182019150602085019450602081019050613a48565b86831015613a8a5784890151613a86601f891682613993565b8355505b6001600288020188555050505b505050505050565b7f596f752063616e2774207472616e736665722074686973204e46540000000000600082015250565b6000613ad5601b836124e2565b9150613ae082613a9f565b602082019050919050565b60006020820190508181036000830152613b0481613ac8565b9050919050565b600081519050919050565b600082825260208201905092915050565b6000613b3282613b0b565b613b3c8185613b16565b9350613b4c8185602086016124f3565b613b558161251d565b840191505092915050565b6000608082019050613b75600083018761261e565b613b82602083018661261e565b613b8f6040830185612968565b8181036060830152613ba18184613b27565b905095945050505050565b600081519050613bbb81612448565b92915050565b600060208284031215613bd757613bd6612412565b5b6000613be584828501613bac565b91505092915050565b7f4e487b7100000000000000000000000000000000000000000000000000000000600052601260045260246000fd5b7f4552433732313a206d696e7420746f20746865207a65726f2061646472657373600082015250565b6000613c536020836124e2565b9150613c5e82613c1d565b602082019050919050565b60006020820190508181036000830152613c8281613c46565b9050919050565b7f4552433732313a20746f6b656e20616c7265616479206d696e74656400000000600082015250565b6000613cbf601c836124e2565b9150613cca82613c89565b602082019050919050565b60006020820190508181036000830152613cee81613cb2565b905091905056fea2646970667358221220c4ed3e2ee3e85122067bf39c56b4b5ad8d8da93da44ef1cd13e8c13ff9ba42ae64736f6c63430008110033",
  "linkReferences": {},
  "deployedLinkReferences": {}
}